:100000000C9434000C9446000C9446000C9446006A
:100010000C9446000C9446000C9446000C94460048
:100020000C9446000C9446000C9446000C94460038
:100030000C9446000C9446000C9446000C94460028
:100040000C9446000C9446000C9446000C94460018
:100050000C9446000C9465000C9446000C944600E9
:100060000C9446000C94460011241FBECFEFD8E03C
:10007000DEBFCDBF21E0A0E0B1E001C01D92A23003
:10008000B207E1F70E946C000C9470000C94000021
:10009000569A84B5806884BD85B5816085BD8FEF33
:1000A00087BD82E080937C0088EA80937A0083E0B9
:1000B00080937B0008958CEE8093BA0082E0809359
:1000C000B80085E08093BC0008958F9380917800FC
:1000D000809179008F9118950E9448007894FFCF05
:0400E000F894FFCFC2
:00000001FF
