:100000000C9434000C9451000C9451000C94510049
:100010000C9451000C9451000C9451000C9451001C
:100020000C9451000C9451000C9451000C9451000C
:100030000C9451000C9451000C9451000C945100FC
:100040000C9451000C9451000C9451000C945100EC
:100050000C9451000C9451000C9451000C945100DC
:100060000C9451000C94510011241FBECFEFD8E026
:10007000DEBFCDBF11E0A0E0B1E0EEE8F1E102C0EB
:1000800005900D92A233B107D9F721E0A2E3B1E0C8
:1000900001C01D92AC39B207E1F70E94AB040C9489
:1000A000C5080C9400001092C50087E68093C40038
:1000B00086E08093C20088E98093C1000895FC0126
:1000C0008191811101C008959091C00095FFFCCFEE
:1000D0008093C600F5CF8091C00085FFFCCF809152
:1000E000C6000895E4E6F0E080818F7780838CE09D
:1000F0008093B800E9EBF0E080818083ECEBF0E0E6
:100100008081846480830895282F9091B900987F1E
:1001100081E0921380E008958091BC00806A809312
:10012000BC008091BC0087FFFCCF88E00C94840069
:100130008DEE8093BB008091BC008F7D8093BC00CE
:100140008091BC0080688093BC008091BC0087FFD8
:10015000FCCF80E40C9484008CEE8093BB008091F3
:10016000BC008F7D8093BC008091BC008068809330
:10017000BC008091BC0087FFFCCF88E10C94840018
:100180008093BB008091BC0080688093BC0080910C
:10019000BC0087FFFCCF88E20C948400FC018091B6
:1001A000BC008F7D8093BC008091BC00806C8093EC
:1001B000BC008091BC0087FFFCCF2091BB008081F8
:1001C0009181A281B381A22B80839183A283B38387
:1001D0008091BC0080688093BC008091BC0087FF48
:1001E000FCCF2091BB0080819181A281B381922BB1
:1001F00080839183A283B3838091BC008F7B8093A3
:10020000BC008091BC0080688093BC008091BC00E1
:1002100087FFFCCF2091BB0080819181A281B381B7
:10022000822B80839183A283B38388E50C9484001E
:10023000FC018091BC008F7D8093BC008091BC004C
:10024000806C8093BC008091BC0087FFFCCF209124
:10025000BB0080819181922B918380838091BC002F
:100260008F7B8093BC008091BC0080688093BC0031
:100270008091BC0087FFFCCF2091BB0080819181E1
:10028000822B9183808388E50C9484008091BC004C
:1002900080698093BC008091BC0084FFFCCF88EF14
:1002A0000C948400E4E6F0E0808187608083089508
:1002B000ECE7F0E0808180648083EAE7F0E0808111
:1002C00080688083EEE7F0E08081808308958091EC
:1002D0007A00806480937A0080917A0086FDFCCF5A
:1002E0008091780090917900089584B1836084B9F9
:1002F00080EC8093800085E1809381000895E4E69E
:10030000F0E08081877F8083589AA6E8B0E085E09E
:1003100090E011969C938E932D913C9142E3429FE5
:10032000C001439F900D1124BF010E94DA04709315
:100330008900609388000895E4E6F0E08081886099
:10034000808308950E9458010E9472000E947501E6
:100350000C945300CF93DF930E948C00882351F0BC
:100360000E94AC00882331F08EE10E94C000811110
:100370000E9446018FE39CE90197F1F700C000005D
:10038000D0E0C0E00E948C00882361F00E94AC00A5
:10039000882341F08C2F880F80560E94C000811165
:1003A0000E9446010E948C00882371F00E949800F0
:1003B000882351F0CE01880F991F8A579E4F0E94C3
:1003C000180181110E9446012196C730D105D1F64E
:1003D0000E948C00882351F00E94AC00882331F0E9
:1003E00088E40E94C00081110E9446018FE39CE9CD
:1003F0000197F1F700C000000E948C00882351F0A3
:100400000E94AC00882331F080E00E94C00081117E
:100410000E9446010E948C00882359F00E94980097
:10042000882339F088E991E00E94CE0081110E9472
:1004300046010E948C00882351F00E94AC00882362
:1004400031F088E50E94C00081110E9446018FE3CF
:100450009CE90197F1F700C000000E948C008823FE
:1004600051F00E94AC00882331F080E00E94C0006F
:1004700081110E9446010E948C00882371F00E9425
:100480009800882351F084E991E00E94CE008823EF
:1004900021F0DF91CF910C944601DF91CF91089527
:1004A0002F923F924F925F926F927F928F929F9284
:1004B000AF92BF92CF92DF92EF92FF920F931F9372
:1004C000CF93DF93CDB7DEB7C451D4400FB6F894C5
:1004D000DEBF0FBECDBF8091900190919101B0E041
:1004E000A0E0BA2FA92F982F882740909401509010
:1004F00095016090960170909701481A590A6A0A0E
:100500007B0A80919201909193015C01D12CC12CC6
:10051000C601B501A30192010E944605D22EE32E29
:10052000F42E052F162FB72FF82FE92FA0E00E94E9
:10053000D40584F42150310940485F4F6F4F7F4FFD
:100540008F4F9F4FD22EE32EF42E052F162FB72F4D
:10055000F82FE92F2D2D3E2D4F2D502F612F7B2F62
:100560008F2F9E2F07E10E94990549019A0184016E
:100570000053184F2F4F3F4FC75FDB4F088319833E
:100580002A833B83C950D44080918C0190918D0186
:100590009C0150E040E0CA01B901A30192010E9410
:1005A0004605D22EE32EF42E052F162FB72FF82F47
:1005B000E92FA0E00E94D4055CF4AFE70E94BF05DC
:1005C000D22EE32EF42E052F162FB72FF82FE92F5A
:1005D0002D2D3E2D4F2D502F612F7B2F8F2F9E2F96
:1005E00007E00E9499054901B42FA52FF62FE72FA8
:1005F0001C01A0908801B0908901950140E050E075
:1006000060E070E080E090E000E10E948005590128
:100610006A017B018C0194014B2F5A2F6F2F7E2F83
:10062000C1010E94B605A0909801B0909901C090B8
:100630009A01D0909B01E12CF12C8701CF5FDB4F19
:10064000A882C150D440CE5FDB4FB882C250D440A4
:10065000CD5FDB4FC882C350D440CC5FDB4FD88224
:10066000C450D440CB5FDB4FE882C550D440CA5F52
:10067000DB4FF882C650D440C95FDB4F0883C750B8
:10068000D440C85FDB4F1883C850D440E12CF12C14
:1006900000E010E00E94EE04D22EE32EF42E052F8F
:1006A000162FB72FF82FE92FA0E00E94D40584F46D
:1006B00021503109404E5F4F6F4F7F4F8F4F9F4FFB
:1006C000D22EE32EF42E052F162FB72FF82FE92F59
:1006D0002D2D3E2D4F2D502F612F7B2F8F2F9E2F95
:1006E00005E10E949905C35FDB4F2883CD50D440BC
:1006F000C25FDB4F3883CE50D440C15FDB4F4883AD
:10070000CF50D440C05FDB4F5883C051D440CF5E40
:10071000DB4F6883C151D440CE5EDB4F7883C2513A
:10072000D440CD5EDB4F8883C351D440CC5EDB4FD9
:100730009883C451D44080918E0190918F017C01A7
:1007400010E000E0CF5FDB4FE882F9820A831B8371
:10075000C150D440C801B701A30192010E944605CF
:10076000D22EE32EF42E052F162FB72FF82FE92FB8
:10077000A0E00E94D4055CF4AFE30E94BF05D22E36
:10078000E32EF42E052F162FB72FF82FE92F2D2D3E
:100790003E2D4F2D502F612F7B2F8F2F9E2F06E048
:1007A0000E9499054901B42FA52FF62FE72F1C01B0
:1007B000A0908A01B0908B01950140E050E060E08C
:1007C00070E080E090E001E10E94800559016A013B
:1007D0007B018C0194014B2F5A2F6F2F7E2FC1016B
:1007E0000E94B60559016A017B018C01C35FDB4F92
:1007F0002881CD50D440C25FDB4F3881CE50D440E9
:10080000C15FDB4F4881CF50D440C05FDB4F588180
:10081000C051D440CF5EDB4F6881C151D440CE5E21
:10082000DB4F7881C251D440CD5EDB4F8881C3510C
:10083000D440CC5EDB4F9881C451D4400E94CB059C
:10084000D22EE32EF42E052F162FB72FF82FE92FD7
:10085000A0E00E94D40584F4215030484F4F5F4FF0
:100860006F4F7F4F8F4F9F4FD22EE32EF42E052FC9
:10087000162FB72FF82FE92F2D2D3E2D4F2D502F4E
:10088000612F7B2F8F2F9E2F0FE00E949905C901AA
:10089000BA01209382019093830140938401709365
:1008A00085017F934F939F932F9380E091E09F93D7
:1008B0008F9301E010E00C0F1D1F1F930F930E94F8
:1008C000EF05C8010E945F00C45FDB4F1881CC5068
:1008D000D4401F93C55FDB4F2881CB50D4402F936A
:1008E000C65FDB4F3881CA50D4403F93C75FDB4FB0
:1008F0004881C950D4404F9381E191E09F938F93F9
:1009000081E090E08C0F9D1F9F938F930E94EF05D5
:10091000CE0101960E945F000FB6F894DEBF0FBEB5
:10092000CDBFCC5EDB4F0FB6F894DEBF0FBECDBFA0
:10093000DF91CF911F910F91FF90EF90DF90CF90BB
:10094000BF90AF909F908F907F906F905F904F90EF
:100950003F902F900895F8940E94A20178940E94ED
:100960006B00C4E60E94AA010E9450022FEF83EDA3
:1009700090E3215080409040E1F700C000000E94C9
:100980006701C89F9001C99F300D11242115304582
:1009900050F09FEF23ED80E3915020408040E1F73D
:1009A00000C00000DFCF0E947F0184E291E00E943E
:1009B0005F00E5CFAA1BBB1B51E107C0AA1FBB1FED
:1009C000A617B70710F0A61BB70B881F991F5A95DB
:1009D000A9F780959095BC01CD010895DF93CF9341
:1009E0001F930F939A9DF02D219FF00D8B9DF00D7D
:1009F0008A9DE02DF10D039FF00D029FE00DF11D8A
:100A00004E9DE00DF11D5E9DF00D4F9DF00D7F930D
:100A10006F93BF92AF925F934F93D5010E94E00511
:100A20008B01AC01D7010E94E005EB01E80FF91F33
:100A3000D6010E943D052F913F91D6010E94E0050D
:100A4000C60FD71FE81FF91FAF91BF910E943D0548
:100A50002F913F910E94E005C60FD71FE81FF91F95
:100A6000D6010E94E005E60FF71F9801BE01CF01F5
:100A70000F911F91CF91DF9108950E94E005460FDD
:100A8000571FC81FD91F08F43196089597FB57FFC9
:100A90000C9456059F938F930E9456056E1B7F0BF7
:100AA000AF91BF918A0B9B0B0895E894DF93CF938E
:100AB000FC01DB010E94E0057F936F93E9019A013D
:100AC000AC01BF93AF933F932F93DF010E94E005EA
:100AD00026F46C1B7D0B820B930B9E01EB01FC013A
:100AE0000E943D05AF91BF912F913F910E943D051E
:100AF000BE01CF01F9012F913F91CF91DF91089570
:100B0000002E083090F0982F872F762F652F542FC6
:100B1000432F322F22270850F4CF220F331F441FB8
:100B2000551F661F771F881F991F0A95B2F7002D62
:100B3000089597FD1094002E083098F00850232F48
:100B4000342F452F562F672F782F892F912DF4CFD3
:100B50001594979587957795679557954795379508
:100B600027950A95AAF71124002D08952A0D3B1DFB
:100B70004C1D5D1D6E1D7F1D801F911F089500245B
:100B8000A7FD00942A0F301D401D501D601D701DD3
:100B9000801D901D08952A193B094C095D096E09B5
:100BA0007F09800B910B08950024A7FD00942A175C
:100BB00030054005500560057005800590050895D5
:100BC000A29FB001B39FC001A39F700D811D11248E
:100BD000911DB29F700D811D1124911D0895AEE0ED
:100BE000B0E0E5EFF5E00C949C080D891E8986E0E5
:100BF0008C831A8309838FEF9FE79E838D83AE01D9
:100C0000475E5F4F6F89788DCE0101960E94120674
:100C10002F813885020F131FF80110822E96E4E011
:100C20000C94B808AFE0B0E0E8E1F6E00C948E0870
:100C30007C013B018A01DC0117961C921E921697DB
:100C400013968C9181FFC3C19AE0292EFE01319643
:100C50004F01D70113969C91F30193FD859193FF6A
:100C600081913F01882309F448C1853239F493FD0D
:100C7000859193FF81913F01853229F4B70190E07E
:100C80000E940008E6CFB12C412C512CBFE1B515D4
:100C900038F08B3209F188F4803201F1833221F18E
:100CA00057FC3AC020ED280F2A3040F556FE1FC0F1
:100CB000B29C200D1124B22E06C08D3291F08033EB
:100CC00079F7689450F8F30193FD859193FF819132
:100CD0003F018111DBCF20C0689451F8689452F82D
:100CE000F2CF689453F8EFCF689454F8ECCF429C5D
:100CF000200D1124422E689455F8E5CF8E3229F448
:100D000056FCFBC0689456F8DECF8C3619F4689414
:100D100057F8D9CF8836B9F2982F9F7D95549330E4
:100D2000C0F08336A1F18337C1F1833509F05BC090
:100D3000D801CD90DD908D016B2D70E056FC02C086
:100D40006FEF7FEFC6010E94EA075C01689457F8D5
:100D50000AC00C5F1F4FEFE3E983AA24A394B12CD0
:100D60006401E89457F853FC04C04A141B0409F0CA
:100D700018F5342CA114B10431F5332009F469CFEE
:100D8000B70180E290E00E9400083A94F6CFD801C3
:100D90008C9189830E5F1F4FE0CFF801C190D190F5
:100DA0008F016B2D70E056FC02C06FEF7FEFC60124
:100DB0000E94F5075C01D5CFB70180E290E00E9468
:100DC00000084A94D2CFF60157FC859157FE8191D5
:100DD0006F01B70190E00E94000831103A94B1E031
:100DE000AB1AB108C7CF843619F0893609F074C040
:100DF000F80157FE6AC061917191819191918F01C3
:100E0000E52DEF76DE2E97FF09C0909580957095C1
:100E100061957F4F8F4F9F4F6894D7F82AE030E05D
:100E2000A4010E943008C82EC818AC2C5D2CD6FE38
:100E30000CC0E89450F8CB1440F4D4FE05C0D2FCAA
:100E400003C05D2D5E7E552EAB2C54FE98C0FE0176
:100E5000EC0DF11D8081803309F08AC0652D697E1B
:100E6000562E752D7870372E53FC98C050FE92C0C8
:100E7000BC2CA41418F44C0CB42CBA1854FE94C016
:100E8000B70180E390E00E94000852FE09C088E7A5
:100E900090E051FE02C088E590E0B7010E94000892
:100EA000CB1408F48DC0CA94D12C8FEFC81AD80A7D
:100EB000C80CD91CD6018E916D01B70190E00E943B
:100EC00000088C149D04B1F758CF61917191072EE1
:100ED000000C880B990B93CFD52CE894D4F82AE01A
:100EE00030E0853739F1F52DF97FDF2E8037A9F015
:100EF00058F48835A9F08F36D9F0F70186819781AB
:100F00002F96E2E10C94AA088837B9F7D4FE02C004
:100F10006894D2F820E130E00DC06894D4F8F6CFA0
:100F200054FE03C02F2F2660D22E20E132E002C0F3
:100F300028E030E0F801D7FE15C041915191619150
:100F400071914C875D876E877F878F01A4016C85C7
:100F50007D858E859F850E943008C82EC818E8942C
:100F6000D7F863CF81919191AC0170E060E0E9CF57
:100F700052FC02C0A39475CFA394A39472CF852D85
:100F8000867809F46ECFF6CFB70180E290E00E9438
:100F90000008A394A414C0F3312C70CF342C3A1859
:100FA000A41408F46BCFF8CF852D867809F478CF98
:100FB0008BE251FE80E257FC8DE2B70190E06ECFEC
:100FC000B70180E390E00E940008BA9469CF8FEFE8
:100FD0009FEF96CFFC010590615070400110D8F74B
:100FE000809590958E0F9F1F0895FC016150704071
:100FF00001900110D8F7809590958E0F9F1F08954E
:101000000F931F93CF93DF93182F092FEB018B8141
:1010100081FD09C01FEF0FEF812F902FDF91CF913E
:101020001F910F91089582FF14C02E813F818C8102
:101030009D81281739073CF4E881F981CF01019699
:101040009983888310838E819F8101969F838E83ED
:10105000E3CFE885F985812F0995892BA1F3DACFB4
:10106000FA01AA27283051F1203181F1E8946F93D9
:101070006E7F6E5F7F4F8F4F9F4FAF4FB1E03ED07F
:10108000B4E03CD0670F781F891F9A1FA11D680F1D
:10109000791F8A1F911DA11D6A0F711D811D911D50
:1010A000A11D20D009F468943F912AE0269F1124C5
:1010B0003019305D3193DEF6CF010895462F477029
:1010C000405D4193B3E00FD0C9F7F6CF462F4F7084
:1010D000405D4A3318F0495D31FD4052419302D0E2
:1010E000A9F7EACFB4E0A695979587957795679588
:1010F000BA95C9F700976105710508959B01AC0188
:101100000A2E06945795479537952795BA95C9F7AE
:10111000620F731F841F951FA01D08952F923F9289
:101120004F925F926F927F928F929F92AF92BF92F7
:10113000CF92DF92EF92FF920F931F93CF93DF93A3
:10114000CDB7DEB7CA1BDB0B0FB6F894DEBF0FBE00
:10115000CDBF09942A88398848885F846E847D844D
:101160008C849B84AA84B984C884DF80EE80FD804F
:101170000C811B81AA81B981CE0FD11D0FB6F894C5
:0E118000DEBF0FBECDBFED010895F894FFCF86
:10118E0050524553535552453A20256C69200A0D4D
:10119E000054454D50455241545552453A20256C08
:1011AE00690A0D00737572666163696E67210A0DB7
:0211BE0000002F
:00000001FF
